000UELLO TECNOLOGIA LTDA              KFR CONFECCAO E COMERCIO DE ARTIGOS2309220930OCO230909302                         
340OCORR230909302                                                                                                       
34126015485000180UELLO TECNOLOGIA LTDA                                                                                  
342357476850006235  0000045701050920221743                                                                              41220835747685000623550050000004571000005661
