000CODIGO DO GUI LTDA S.A             SUPER UELLO LTDAAA                 2603201000OCO502603032                                                                                                                                                          
540OCORR502603032                                                                                                                                                                                                                                         
54104884082000305CODIGO DO GUI LTDA S.A                                                                                                                                                                                                                     
542844297370065892  00000008100009032020171600                                                                                00000000010    7650559                                                                                                      
542844297370065892  00000008120909032020180000                                                                                00000000010    7650559                                                                                                      
542844297370065892  00000008120810032020050700                                                                                00000000010    7650559                                                                                                      
542844297370065892  00000008120910032020053400                                                                                00000000010    7650559                                                                                                      
5490097                                                                                                                                                                                                                                                   