000AAAAAA LOGISTICA S.A               BBBBBB BBBBBB LTDA                 0000000000OCO000000000                                                                                                                                                           
540OCORR500000000                                                                                                                                                                                                                                         
54104884082000305AAAAAA LOGISTICA S.A                                                                                                                                                                                                                     
542000000000000000  00000000000000000000000000                                                                                00000000010    7650559                                                                                                      
542000000000000000  00000000000000000000000000                                                                                00000000010    7650559                                                                                                      
5490097                                                                                                                                                                                                                                                   