000JADLOG LOGISTICA S.A               MALWEE MALHAS LTDA                 2603201000OCO502603032                                                                                                                                                           
540OCORR502603032                                                                                                                                                                                                                                         
54104884082000305JADLOG LOGISTICA S.A                                                                                                                                                                                                                     
542844297370065892  00000008100009132020171600                                                                                00000000010    7650559                                                                                                      
542844297370065892  00000008120909aa2020180000                                                                                00000000010    7650559                                                                                                      
542844297370065892  00000008120810002020050700                                                                                00000000010    7650559                                                                                                      
542844297370065892  00000008120910002020053400                                                                                00000000010    7650559                                                                                                      
542844297370065892  00000008120910002020060700                                                                                00000000010    7650559                                                                                                      
5490097                                                                                                                                                                                                                                                   